:020000040800F2
:100000008006002091010008990100089B0100086A
:100010009D0100089F010008A101000800000000E8
:10002000000000000000000000000000A301000824
:10003000A501000800000000A7010008A9010008B0
:10004000AB010008AB010008AB0100085D08000827
:10005000AB010008AB010008AB010008AB010008D0
:10006000AB010008AB010008AB010008AB010008C0
:10007000AB010008AB010008AB010008AB010008B0
:10008000AB010008AB010008AB010008AB010008A0
:10009000AB010008AB010008AB010008AB01000890
:1000A000AB010008AB010008AB010008AB01000880
:1000B000AB010008AB010008AB010008AB01000870
:1000C000AB010008AB010008AB010008AB01000860
:1000D000AB010008AB010008AB010008AB01000850
:1000E000AB010008AB010008AB01000800F002F80A
:1000F00000F03FF80AA090E8000C82448344AAF183
:100100000107DA4501D100F034F8AFF2090EBAE880
:100110000F0013F0010F18BFFB1A43F0010318473B
:10012000D80E0000F80E0000103A24BF78C878C13D
:10013000FAD8520724BF30C830C144BF04680C60ED
:10014000704700000023002400250026103A28BF35
:1001500078C1FBD8520728BF30C148BF0B60704739
:10016000642900F07180002070471FB51FBD10B5D5
:1001700010BD00F0BAF91146FFF7F7FF00F0EAFDF5
:1001800000F0D8F903B4FFF7F2FF03BC00F0E0F988
:100190000948804709480047FEE7FEE7FEE7FEE71B
:1001A000FEE7FEE7FEE7FEE7FEE7FEE70448054957
:1001B000054A064B70470000A9080008ED0000083A
:1001C00080000020800600208002002080020020A5
:1001D0000FB41CB5074B06AA7B44694600900598EE
:1001E00000F06BF90020694600F07AF91CBC5DF85C
:1001F00014FB00000503000070B504468569006823
:10020000C10601D5302600E02026C00707D070BD0A
:10021000D4E9012130469047206A401C20626D1EBF
:10022000F6D570BD70B5044685690078C00707D162
:1002300070BDD4E9012120209047206A401C206233
:100240006D1EF6D570BD00002DE9F0410646002474
:1002500010687529314616A510D0AFF3008000282C
:1002600002DA404213A507E031688A0701D512A5DA
:1002700002E0490704D511A5012401E0AFF3008095
:1002800000210A2206F1240709E0B0FBF2FCB0FBD2
:10029000F2F302FB1C00303078541846491C002849
:1002A000F3D123462A463046BDE8F04100F0A7B816
:1002B000000000002D0000002B00000020000000C6
:1002C0002DE9F05F894604464FF0000ADFF824B1BB
:1002D000FB44C0F820A02046E168884700287DD074
:1002E000252806D0D4E901219047206A401C2062CD
:1002F000F1E700255F462046E1688847202806464A
:1003000007DB312E05D2B81910F8200C08B10543CF
:10031000F1E7A80701D525F00405C4F81CA00027C3
:10032000C4F818A02A2E09D0304600F0EDFA38B3F0
:1003300004EB8708303EC8F8186019E059F8041B30
:10034000204604EB87029161E1688847012F064649
:1003500018D1E069002820DA25F020051DE0D8F842
:10036000180000EB800006EB40003038C8F8180099
:100370002046E1688847064600F0C6FA0028EED11C
:10038000012F0AD02E2E08D12046E16888477F1C15
:100390000646022F45F02005C4DBA069002803DAD9
:1003A000404245F00105A061E80701D025F01005A5
:1003B000A6B1A6F14100192802D8203645F40065FF
:1003C0004A463146204625604D46FFF7C9FE60B1DA
:1003D000012807D0ED1D25F0070000E007E000F13F
:1003E000080978E705F1040975E730467AE7206ADD
:1003F000BDE8F09F120D00007047704770472DE96F
:10040000F0470D4699469246044600F124080168DB
:10041000880604D5E06921F01001216000E0012088
:10042000A84201DD471B00E00027A1697A1902EB11
:100430000900081AA0612078C00602D42046FFF700
:10044000DBFE002608E0D4E901211AF806009047F7
:10045000206A401C761C20624E45F4DB2078C006E2
:100460000AD52046FFF7C8FE06E0D4E90121302076
:100470009047206A401C2062381EA7F10107F4DC77
:1004800007E0D4E9012118F805009047206A401CD4
:100490002062281EA5F10105F3DC2046FFF7C2FE0D
:1004A0002078000602D50220BDE8F0870120FBE796
:1004B00001694A1C02610878704700B58FB0CDE928
:1004C00001310021059105497944CDE90310114618
:1004D0006846FFF7F5FE0FB000BD0000E5FFFFFF27
:1004E0000A6802F8010B0A607047754600F02CF8A4
:1004F000AE4605006946534620F00700854618B011
:1005000020B5FFF753FEBDE820404FF000064FF046
:1005100000074FF000084FF0000B21F00701AC4638
:10052000ACE8C009ACE8C009ACE8C009ACE8C00957
:100530008D46704710B50446AFF300802046BDE8F5
:100540001040FFF71FBE0000004870472000002049
:1005500001491820ABBEFEE72600020070470000EC
:100560000748006840F08070054908600020054990
:1005700048600846006840F00100086070470000CD
:10058000FCED00E0001000E02DE9FF4F80460C4636
:1005900040F2B2793248B8FBF0F5B8FBF0F100FB5D
:1005A0001187281D0721B0FBF1F201FB120BBBF1F3
:1005B000000F01D1072000E05846207213E04846A2
:1005C00000F006F910B14FF4B77001E040F26D1081
:1005D0008246554500D207E0A5EB0A0509F1010066
:1005E0001FFA80F900BFEAE700BFA4F806901DA239
:1005F00007CA01AB07C3484600F0EAF808B11D205E
:1006000000E01C20009001260DE0022E01D100998F
:1006100002E0711E01AA515C0846854200D204E046
:100620002D1A701CC6B20C2EEFDD00BF2671681C9F
:10063000E0704FF46160B7FBF0F0A0704FF46160C0
:10064000B7FBF0F100FB11773C20B7FBF0F06070D6
:100650003C20B7FBF0F100FB11702070BDE8FF8F6C
:10066000805101001F1C1F1E1F1E1F1F1E1F1E1F4B
:100670002DE9FE410446002540F2B2780DE04046E7
:1006800000F0A6F810B14FF4B77001E040F26D1021
:10069000054408F101001FFA80F8E0884045EEDCCF
:1006A00016A207CA8DE8070001260CE0701E1DF88F
:1006B00000000544022E04D1E08800F089F800B162
:1006C0006D1C701CC6B22079B042EFDCE078401E91
:1006D00005440D4805FB00F7A078C0EB4011C1EBC5
:1006E000002007EB00176078C0EB001007EB8007D5
:1006F000207807443846BDE8FE8100001F1C1F1EFD
:100700001F1E1F1F1E1F1E1F8051010030B50546F2
:100710001248008820F008001049088000BF0F48E8
:10072000008800F008000028F9D000BF0B481830FE
:1007300000880A491431098840EA01440748183002
:10074000008806491431098840EA0140A042EDD1F1
:1007500029462046FFF718FF30BD0000042800405E
:100760001249096A41F00101104A1162104801E082
:1007700000B908E00D49096A01F0020119B9011E2A
:10078000A0F10100F4D100BF0849096A21F44071C9
:10079000064A11621146096A41F4807111621146DC
:1007A000096A41F4004111627047000000100240E4
:1007B000FFFF0F000549098845F65A22914201D1F1
:1007C000012100E00021084670470000046C004051
:1007D00001464FF4C87091FBF0F300FB131068B1B1
:1007E0000A46C81701EB90708010A1EB800038B961
:1007F000642091FBF0F300FB131008B10120704757
:100800000020FCE730B505462846FFF731FF0446D7
:1008100000BF1148008800F020000028F9D00E48E1
:10082000008840F010000C4908804FF6FF7000EA85
:100830001440094914310880091D0C8006480088BD
:1008400020F010000449088000BF0348008800F031
:1008500020000028F9D030BD04280040104800884E
:1008600000F0010028B10E48008820F001000C497A
:1008700008800B48008800F0020028B10848008872
:1008800020F00200064908800548008800F00400B6
:1008900028B10348008820F004000149088070470F
:1008A000042800407047000010B51348006840F06D
:1008B00001001149086008464068104908400E4987
:1008C0004860084600680E4908400B490860084621
:1008D000006820F4802008600846406820F4FE008C
:1008E00048604FF41F008860FFF7DCFF4FF00060A6
:1008F0000449086010BD0000001002400000FFF82D
:10090000FFFFF6FE08ED00E030380A2801D2012092
:10091000704700207047000000B501460848006895
:100920004FF47A73B0FBF3F0414300F035F8024620
:1009300000BF00F031F8801A8842FAD300BD0000F1
:100940000000002000B50246074800684FF47A73A3
:10095000B0FBF3F0414300F01FF8801A884201D346
:10096000012000BD0020FCE70000002000B501468A
:1009700007480068074BB0FBF3F0414300F00CF868
:10098000024600BF00F008F8801A8842FAD300BD82
:100990000000002040420F000148406870470000FE
:1009A000001000E010B53148C06940F400102F4934
:1009B000C8610846806940F0090088612C48406899
:1009C00040F002002A4948602A48006820F0FF00F1
:1009D000284908600846006840F0FF000860234886
:1009E000006940F40010214908610846006920F4BC
:1009F000001008612048008820F001001E4908808E
:100A0000FE2008801C480C38008820F040001A495D
:100A10000C3908800846008820F0800008800846CD
:100A2000008820F001000880252013491431088037
:100A30002420114908390880B4200F49103108805A
:100A40000D480C38008820F400600B490C390880F0
:100A50000846008840F4806008800846008840F01E
:100A6000010008800A20FFF757FF10BD0010024068
:100A700000000140040C01400C5400400949098861
:100A800041F48071074A1180074800E000BF054922
:100A90001431098801F0010119B9011EA0F101000A
:100AA000F4D1704700540040A0860100094909882C
:100AB00041F40071074A1180074800E000BF054972
:100AC000098801F4007119B1011EA0F10100F5D1EE
:100AD0007047000000540040A0860100074A1080C3
:100AE000074900E000BF054A121D128802F080028B
:100AF0001AB90A1EA1F10101F4D170471054004047
:100B0000A08601002DE9F04105460E46FFF7B6FF2D
:100B1000002141EA4501C8B2FFF7E0FF184F00E0AD
:100B200000BF1848008800F0020018B9381EA7F16D
:100B30000107F5D100BFEFF31080044600BF72B685
:100B4000104800880F48001D008800BF84F31088FB
:100B500000BF3046FFF7C2FF094F00E000BF094861
:100B6000008800F0040018B9381EA7F10107F5D17C
:100B7000FFF79CFF0F20FFF7F9FEBDE8F0810000B2
:100B8000A08601001454004010B52820FFF7C4FED1
:100B90000021032000F059F80620FFF7BDFE0021D8
:100BA000032000F052F80620FFF7B6FE00210320D4
:100BB00000F04BF80620FFF7AFFE0021022000F006
:100BC00044F80620FFF7A8FE282000F022F80820AD
:100BD00000F01FF8012000F01CF8062000F019F8C2
:100BE0000C2000F016F808212720FFF78BFF10BD1E
:100BF00010B50446204600F01EF810BD10B504469E
:100C000003E014F8010BFFF7F3FF20780028F8D178
:100C100010BD10B504460021204600F08DF8012CCF
:100C200001D0022C03D10620FFF776FE02E0062059
:100C3000FFF772FE10BD10B504460121204600F0FA
:100C40007BF80120FFF768FE10BD2DE9F041074653
:100C50000E4607F00F05002405F0010008B144F02E
:100C6000100405F0020008B144F0200405F004006F
:100C700008B144F0400405F0080008B144F08004D5
:100C80000EB144F0010444F0080444F004012720AC
:100C9000FFF738FF0120FFF73FFE21462720FFF72F
:100CA00031FF0120FFF738FEBDE8F08170B5054641
:100CB0000E460DB9002400E04024A019C4B244F04F
:100CC0008000FFF7A6FF70BD10B588B00446002174
:100CD0000846FFF7EBFF207AE188CDE90010237981
:100CE000E2780CA103A8FFF773FA03A8FFF786FFC9
:100CF00000210120FFF7DAFF207800906378A278C6
:100D000009A103A8FFF764FA03A8FFF777FF08B06B
:100D100010BD0000253032642F253032642F25307D
:100D20003464252030326400253032643A25303274
:100D3000643A25303264000070B504460D46201137
:100D40002946FFF782FF04F00F002946FFF77DFFD9
:100D500070BD000000F0BCF8FFF702FCFFF722FEB8
:100D6000FFF712FF00F01CF800210846FFF79EFF76
:100D7000FFF712FE04460FE04FF4FA712046FFF72A
:100D8000E1FD40B10548FFF7C1FC0448FFF79CFFB7
:100D9000FFF702FE044630BFEEE70000140000201B
:100DA0001EB54448C06940F0C0504249C86142483D
:100DB000006840F4807040490860FFF7FBFC0028A1
:100DC0003FD13C48006A40F480303A490862084606
:100DD000006A20F480300862FFF7C2FC00BF374889
:100DE000008800F020000028F9D03448008840F046
:100DF0001000324908800020091D088047F6FF7066
:100E0000091D08802D48008820F010002B4908801B
:100E100000BF2A48008800F020000028F9D0284AA6
:100E200007CA8DE807006846FFF7ECFC45F65A2034
:100E3000244908802148008820F007001F490880C5
:100E400000BF1E48008820F008001C49088000BF31
:100E50001A48008800F008000028F9D01748001F41
:100E6000008840F001001549091F088003200F2168
:100E7000002804DB0A07130E134A135406E00A077E
:100E8000140E124A00F00F031B1FD45400BF03209E
:100E900000280DDB00BF00BF00F01F0201219140C0
:100EA0004209920002F1E022C2F8001100BF00BF27
:100EB00000BF1EBD0010024000700040042800402A
:100EC000DC0F0008046C004000E400E018ED00E0D6
:100ED0003E48006840F480303C49086000BF3B4811
:100EE000006800F400300028F9D03948006820F08C
:100EF0001000374908600846006840F0100008609C
:100F00000846006820F0070008600846006840F0C6
:100F1000020008602D48406820F0F0002B4948602E
:100F20000846406848600846406820F4E060486031
:100F30000846406840F4806048600846406820F4F5
:100F4000605048600846406848600846406820F4A1
:100F50007C1048600846406820F4803048600846AD
:100F6000406820F4003048600846406820F4701063
:100F700048600846406840F4803048600846406851
:100F800040F4E01048600846006840F08070086057
:100F900000BF0E48006800F000700028F9D00B4830
:100FA000406820F00300094948600846406840F066
:100FB0000200486000BF0548406800F00C000828A7
:100FC000F9D104480449086070470000001002404D
:100FD0000020024000A24A0400000020001B171756
:100FE0000100EA07050004000008000000000000FE
:100FF000000200010000100018100008000000208E
:1010000014000000280100082C1000081400002023
:101010006C0600004401000800127A000000000085
:0C1020000000000001020304060708099C
:04000005080001915D
:00000001FF
