:020000040800F2
:10000000680600208901000891010008930100089A
:100010009501000897010008990100080000000000
:100020000000000000000000000000009B0100082C
:100030009D010008000000009F010008A1010008C8
:10004000A3010008A3010008A3010008A301000800
:10005000A3010008A301000845020008A30100084D
:10006000A3010008A3010008A3010008A3010008E0
:10007000A3010008A3010008A3010008A3010008D0
:10008000A3010008A3010008A3010008A3010008C0
:10009000A3010008A3010008A3010008A3010008B0
:1000A000A3010008A3010008A3010008A3010008A0
:1000B000A3010008A3010008A3010008A301000890
:1000C000A3010008A3010008A3010008A301000880
:1000D000A3010008A3010008A3010008A301000870
:1000E000A3010008A3010008A301000800F002F822
:1000F00000F03AF80AA090E8000C82448344AAF188
:100100000107DA4501D100F02FF8AFF2090EBAE885
:100110000F0013F0010F18BFFB1A43F0010318473B
:100120001804000038040000103A24BF78C878C1D1
:10013000FAD8520724BF30C830C144BF04680C60ED
:10014000704700000023002400250026103A28BF35
:1001500078C1FBD8520728BF30C148BF0B60704739
:100160001FB51FBD10B510BD00F031F81146FFF7E7
:10017000F7FF00F005F900F04FF803B4FFF7F2FFC6
:1001800003BC00F057F800000948804709480047C1
:10019000FEE7FEE7FEE7FEE7FEE7FEE7FEE7FEE737
:1001A000FEE7FEE704480549054A064B7047000094
:1001B00091020008ED000008680000206806002099
:1001C000680200206802002070477047704775463B
:1001D00000F02CF8AE4605006946534620F00700B3
:1001E000854618B020B5FFF7DDFFBDE820404FF091
:1001F00000064FF000074FF000084FF0000B21F011
:100200000701AC46ACE8C009ACE8C009ACE8C009DD
:10021000ACE8C0098D46704710B50446AFF30080C6
:100220002046BDE81040FFF7A8BF00000048704717
:100230000400002001491820ABBEFEE726000200A2
:10024000704700000D48006800F00100A8B10B489D
:10025000006840F001000949086009480068094940
:10026000884207DD0649086800EBD0714910044A4E
:10027000116002E00448024908607047140401401C
:1002800000000020E0930400809698007047000072
:1002900010B51348006840F0010011490860084695
:1002A0004068104908400E494860084600680E49F9
:1002B00008400B4908600846006820F48020086068
:1002C0000846406820F4FE0048604FF41F00886034
:1002D000FFF7DCFF4FF000600449086010BD00002C
:1002E000001002400000FFF8FFFFF6FE08ED00E0FE
:1002F00010B51D48006840F001001B4908601A480D
:100300001438006840F00100174914390860174894
:100310008068164988601648806940F004001449D6
:10032000886111480838006840F001000E4908391A
:1003300008601048006840F040004FF0E021C1F82C
:10034000000106200021002804DB0A07130E0A4AD8
:10035000135406E00A07140E084A00F00F031B1F8F
:10036000D45400BF10BD000014040140000001403F
:100370000010024000E100E000E400E018ED00E0C1
:1003800000F06EF800F04CF800F022F8FFF7B0FF34
:1003900019E00D48006840F480200B4908600020F7
:1003A00000E0401C094909688842FADB06480068F9
:1003B00040F0040004490860002000E0401C0349AC
:1003C00009688842FADBE4E7100C014000000020D5
:1003D0001148806940F004000F4988610F480068A7
:1003E00020F001000D4908600846006820F0020076
:1003F00008600846006820F00400086008460068AD
:1004000040F00800086005481030006840F4803073
:100410000249103108607047001002400008014096
:100420000D48806940F008000B4988610B4800685E
:1004300020F48070094908600846006840F40070A4
:1004400008600846006820F480600860084600687C
:1004500020F400600860704700100240000C01406A
:100460003348006840F480303149086000BF3048AC
:10047000006800F400300028F9D02E48006820F011
:1004800010002C4908600846006840F01000086021
:100490000846006820F0070008600846006840F041
:1004A000020008602248406820F0F00020494860BF
:1004B0000846406848600846406820F4605048603C
:1004C0000846406848600846406820F4E06048609C
:1004D0000846406840F4806048600846406820F460
:1004E0007C1048600846406840F4E81048600846C0
:1004F000006840F08070086000BF0D48006800F0A0
:100500000070B0F1007FF8D10948406820F0030086
:10051000074948600846406840F00200486000BF54
:100520000348406800F00C000828F9D1704700002B
:100530000010024000200240580500080000002082
:1005400004000000280100085C05000804000020E9
:0C055000640600004401000820AA4400DA
:040000050800018965
:00000001FF
